{
  "_format": "hh-sol-artifact-1",
  "contractName": "CrowdfundingContract",
  "sourceName": "contracts/CrowdfundingContract.sol",
  "abi": [
    {
      "anonymous": false,
      "inputs": [
        {
          "indexed": false,
          "internalType": "string",
          "name": "businessId",
          "type": "string"
        },
        {
          "indexed": false,
          "internalType": "address",
          "name": "owner",
          "type": "address"
        },
        {
          "indexed": false,
          "internalType": "uint256",
          "name": "goal",
          "type": "uint256"
        },
        {
          "indexed": false,
          "internalType": "uint256",
          "name": "deadline",
          "type": "uint256"
        }
      ],
      "name": "CampaignCreated",
      "type": "event"
    },
    {
      "anonymous": false,
      "inputs": [
        {
          "indexed": false,
          "internalType": "string",
          "name": "businessId",
          "type": "string"
        },
        {
          "indexed": true,
          "internalType": "address",
          "name": "contributor",
          "type": "address"
        },
        {
          "indexed": false,
          "internalType": "uint256",
          "name": "amount",
          "type": "uint256"
        },
        {
          "indexed": false,
          "internalType": "bool",
          "name": "isAnonymous",
          "type": "bool"
        }
      ],
      "name": "ContributionMade",
      "type": "event"
    },
    {
      "anonymous": false,
      "inputs": [
        {
          "indexed": false,
          "internalType": "string",
          "name": "businessId",
          "type": "string"
        },
        {
          "indexed": false,
          "internalType": "uint256",
          "name": "amount",
          "type": "uint256"
        }
      ],
      "name": "GoalReached",
      "type": "event"
    },
    {
      "inputs": [
        {
          "internalType": "string",
          "name": "",
          "type": "string"
        }
      ],
      "name": "campaignExists",
      "outputs": [
        {
          "internalType": "bool",
          "name": "",
          "type": "bool"
        }
      ],
      "stateMutability": "view",
      "type": "function"
    },
    {
      "inputs": [
        {
          "internalType": "string",
          "name": "",
          "type": "string"
        }
      ],
      "name": "campaigns",
      "outputs": [
        {
          "internalType": "address payable",
          "name": "owner",
          "type": "address"
        },
        {
          "internalType": "string",
          "name": "businessId",
          "type": "string"
        },
        {
          "internalType": "uint256",
          "name": "goal",
          "type": "uint256"
        },
        {
          "internalType": "uint256",
          "name": "deadline",
          "type": "uint256"
        },
        {
          "internalType": "uint256",
          "name": "amountRaised",
          "type": "uint256"
        },
        {
          "internalType": "bool",
          "name": "active",
          "type": "bool"
        }
      ],
      "stateMutability": "view",
      "type": "function"
    },
    {
      "inputs": [
        {
          "internalType": "string",
          "name": "businessId",
          "type": "string"
        },
        {
          "internalType": "bool",
          "name": "isAnonymous",
          "type": "bool"
        }
      ],
      "name": "contribute",
      "outputs": [],
      "stateMutability": "payable",
      "type": "function"
    },
    {
      "inputs": [
        {
          "internalType": "string",
          "name": "businessId",
          "type": "string"
        },
        {
          "internalType": "uint256",
          "name": "goal",
          "type": "uint256"
        },
        {
          "internalType": "uint256",
          "name": "durationDays",
          "type": "uint256"
        }
      ],
      "name": "createCampaign",
      "outputs": [],
      "stateMutability": "nonpayable",
      "type": "function"
    },
    {
      "inputs": [
        {
          "internalType": "string",
          "name": "businessId",
          "type": "string"
        }
      ],
      "name": "getCampaignDetails",
      "outputs": [
        {
          "internalType": "address",
          "name": "owner",
          "type": "address"
        },
        {
          "internalType": "uint256",
          "name": "goal",
          "type": "uint256"
        },
        {
          "internalType": "uint256",
          "name": "deadline",
          "type": "uint256"
        },
        {
          "internalType": "uint256",
          "name": "amountRaised",
          "type": "uint256"
        },
        {
          "internalType": "bool",
          "name": "active",
          "type": "bool"
        }
      ],
      "stateMutability": "view",
      "type": "function"
    },
    {
      "inputs": [
        {
          "internalType": "string",
          "name": "businessId",
          "type": "string"
        },
        {
          "internalType": "address",
          "name": "contributor",
          "type": "address"
        }
      ],
      "name": "getContribution",
      "outputs": [
        {
          "internalType": "uint256",
          "name": "",
          "type": "uint256"
        }
      ],
      "stateMutability": "view",
      "type": "function"
    }
  ],
  "bytecode": "0x608060405234801561001057600080fd5b506116a9806100206000396000f3fe6080604052600436106100555760003560e01c80631531cc151461005a5780631d39e509146100975780633020580b146100d957806391b8ebe4146101025780639f18e80f14610143578063c05e4f6814610180575b600080fd5b34801561006657600080fd5b50610081600480360381019061007c9190610b3b565b61019c565b60405161008e9190610b9f565b60405180910390f35b3480156100a357600080fd5b506100be60048036038101906100b99190610b3b565b6101d2565b6040516100d096959493929190610c93565b60405180910390f35b3480156100e557600080fd5b5061010060048036038101906100fb9190610d27565b6102d9565b005b34801561010e57600080fd5b5061012960048036038101906101249190610b3b565b6104cd565b60405161013a959493929190610db7565b60405180910390f35b34801561014f57600080fd5b5061016a60048036038101906101659190610e36565b6105bb565b6040516101779190610e92565b60405180910390f35b61019a60048036038101906101959190610ed9565b61068f565b005b6001818051602081018201805184825260208301602085012081835280955050505050506000915054906101000a900460ff1681565b6000818051602081018201805184825260208301602085012081835280955050505050506000915090508060000160009054906101000a900473ffffffffffffffffffffffffffffffffffffffff169080600101805461023190610f64565b80601f016020809104026020016040519081016040528092919081815260200182805461025d90610f64565b80156102aa5780601f1061027f576101008083540402835291602001916102aa565b820191906000526020600020905b81548152906001019060200180831161028d57829003601f168201915b5050505050908060020154908060030154908060040154908060050160009054906101000a900460ff16905086565b6001836040516102e99190610fd1565b908152602001604051809103902060009054906101000a900460ff1615610345576040517f08c379a000000000000000000000000000000000000000000000000000000000815260040161033c90611034565b60405180910390fd5b60008211610388576040517f08c379a000000000000000000000000000000000000000000000000000000000815260040161037f906110a0565b60405180910390fd5b600080846040516103999190610fd1565b90815260200160405180910390209050338160000160006101000a81548173ffffffffffffffffffffffffffffffffffffffff021916908373ffffffffffffffffffffffffffffffffffffffff160217905550838160010190816103fd919061126c565b508281600201819055506201518082610416919061136d565b4261042191906113af565b816003018190555060018160050160006101000a81548160ff02191690831515021790555060008160040181905550600180856040516104619190610fd1565b908152602001604051809103902060006101000a81548160ff0219169083151502179055507fd7117cbe9cfaa8f2a534ecf8be64be721fbc54fae44ed5185ab51dbe320ef50a84338584600301546040516104bf94939291906113e3565b60405180910390a150505050565b60008060008060006001866040516104e59190610fd1565b908152602001604051809103902060009054906101000a900460ff16610540576040517f08c379a00000000000000000000000000000000000000000000000000000000081526004016105379061147b565b60405180910390fd5b600080876040516105519190610fd1565b908152602001604051809103902090508060000160009054906101000a900473ffffffffffffffffffffffffffffffffffffffff168160020154826003015483600401548460050160009054906101000a900460ff16955095509550955095505091939590929450565b60006001836040516105cd9190610fd1565b908152602001604051809103902060009054906101000a900460ff16610628576040517f08c379a000000000000000000000000000000000000000000000000000000000815260040161061f9061147b565b60405180910390fd5b6000836040516106389190610fd1565b908152602001604051809103902060060160008373ffffffffffffffffffffffffffffffffffffffff1673ffffffffffffffffffffffffffffffffffffffff16815260200190815260200160002054905092915050565b816001816040516106a09190610fd1565b908152602001604051809103902060009054906101000a900460ff166106fb576040517f08c379a00000000000000000000000000000000000000000000000000000000081526004016106f29061147b565b60405180910390fd5b60008160405161070b9190610fd1565b908152602001604051809103902060050160009054906101000a900460ff16610769576040517f08c379a0000000000000000000000000000000000000000000000000000000008152600401610760906114e7565b60405180910390fd5b6000816040516107799190610fd1565b90815260200160405180910390206003015442106107cc576040517f08c379a00000000000000000000000000000000000000000000000000000000081526004016107c390611553565b60405180910390fd5b6000341161080f576040517f08c379a0000000000000000000000000000000000000000000000000000000008152600401610806906115e5565b60405180910390fd5b600080846040516108209190610fd1565b90815260200160405180910390209050348160060160003373ffffffffffffffffffffffffffffffffffffffff1673ffffffffffffffffffffffffffffffffffffffff168152602001908152602001600020600082825461088191906113af565b925050819055503481600401600082825461089c91906113af565b92505081905550826108ae57336108b1565b60005b73ffffffffffffffffffffffffffffffffffffffff167f10f8b7aad84e3655ed44e0da0f1fdf757d132561190c363bb9a5c59e80ef11968534866040516108fa93929190611605565b60405180910390a280600201548160040154106109db5760008160050160006101000a81548160ff0219169083151502179055507f663c9c0d874c70581a618fd580d05569bf619b1e4e0d72baeea75e0be2fdbc3d848260040154604051610963929190611643565b60405180910390a18060000160009054906101000a900473ffffffffffffffffffffffffffffffffffffffff1673ffffffffffffffffffffffffffffffffffffffff166108fc82600401549081150290604051600060405180830381858888f193505050501580156109d9573d6000803e3d6000fd5b505b50505050565b6000604051905090565b600080fd5b600080fd5b600080fd5b600080fd5b6000601f19601f8301169050919050565b7f4e487b7100000000000000000000000000000000000000000000000000000000600052604160045260246000fd5b610a48826109ff565b810181811067ffffffffffffffff82111715610a6757610a66610a10565b5b80604052505050565b6000610a7a6109e1565b9050610a868282610a3f565b919050565b600067ffffffffffffffff821115610aa657610aa5610a10565b5b610aaf826109ff565b9050602081019050919050565b82818337600083830152505050565b6000610ade610ad984610a8b565b610a70565b905082815260208101848484011115610afa57610af96109fa565b5b610b05848285610abc565b509392505050565b600082601f830112610b2257610b216109f5565b5b8135610b32848260208601610acb565b91505092915050565b600060208284031215610b5157610b506109eb565b5b600082013567ffffffffffffffff811115610b6f57610b6e6109f0565b5b610b7b84828501610b0d565b91505092915050565b60008115159050919050565b610b9981610b84565b82525050565b6000602082019050610bb46000830184610b90565b92915050565b600073ffffffffffffffffffffffffffffffffffffffff82169050919050565b6000610be582610bba565b9050919050565b610bf581610bda565b82525050565b600081519050919050565b600082825260208201905092915050565b60005b83811015610c35578082015181840152602081019050610c1a565b60008484015250505050565b6000610c4c82610bfb565b610c568185610c06565b9350610c66818560208601610c17565b610c6f816109ff565b840191505092915050565b6000819050919050565b610c8d81610c7a565b82525050565b600060c082019050610ca86000830189610bec565b8181036020830152610cba8188610c41565b9050610cc96040830187610c84565b610cd66060830186610c84565b610ce36080830185610c84565b610cf060a0830184610b90565b979650505050505050565b610d0481610c7a565b8114610d0f57600080fd5b50565b600081359050610d2181610cfb565b92915050565b600080600060608486031215610d4057610d3f6109eb565b5b600084013567ffffffffffffffff811115610d5e57610d5d6109f0565b5b610d6a86828701610b0d565b9350506020610d7b86828701610d12565b9250506040610d8c86828701610d12565b9150509250925092565b6000610da182610bba565b9050919050565b610db181610d96565b82525050565b600060a082019050610dcc6000830188610da8565b610dd96020830187610c84565b610de66040830186610c84565b610df36060830185610c84565b610e006080830184610b90565b9695505050505050565b610e1381610d96565b8114610e1e57600080fd5b50565b600081359050610e3081610e0a565b92915050565b60008060408385031215610e4d57610e4c6109eb565b5b600083013567ffffffffffffffff811115610e6b57610e6a6109f0565b5b610e7785828601610b0d565b9250506020610e8885828601610e21565b9150509250929050565b6000602082019050610ea76000830184610c84565b92915050565b610eb681610b84565b8114610ec157600080fd5b50565b600081359050610ed381610ead565b92915050565b60008060408385031215610ef057610eef6109eb565b5b600083013567ffffffffffffffff811115610f0e57610f0d6109f0565b5b610f1a85828601610b0d565b9250506020610f2b85828601610ec4565b9150509250929050565b7f4e487b7100000000000000000000000000000000000000000000000000000000600052602260045260246000fd5b60006002820490506001821680610f7c57607f821691505b602082108103610f8f57610f8e610f35565b5b50919050565b600081905092915050565b6000610fab82610bfb565b610fb58185610f95565b9350610fc5818560208601610c17565b80840191505092915050565b6000610fdd8284610fa0565b915081905092915050565b7f43616d706169676e20616c726561647920657869737473000000000000000000600082015250565b600061101e601783610c06565b915061102982610fe8565b602082019050919050565b6000602082019050818103600083015261104d81611011565b9050919050565b7f476f616c206d7573742062652067726561746572207468616e20300000000000600082015250565b600061108a601b83610c06565b915061109582611054565b602082019050919050565b600060208201905081810360008301526110b98161107d565b9050919050565b60008190508160005260206000209050919050565b60006020601f8301049050919050565b600082821b905092915050565b6000600883026111227fffffffffffffffffffffffffffffffffffffffffffffffffffffffffffffffff826110e5565b61112c86836110e5565b95508019841693508086168417925050509392505050565b6000819050919050565b600061116961116461115f84610c7a565b611144565b610c7a565b9050919050565b6000819050919050565b6111838361114e565b61119761118f82611170565b8484546110f2565b825550505050565b600090565b6111ac61119f565b6111b781848461117a565b505050565b5b818110156111db576111d06000826111a4565b6001810190506111bd565b5050565b601f821115611220576111f1816110c0565b6111fa846110d5565b81016020851015611209578190505b61121d611215856110d5565b8301826111bc565b50505b505050565b600082821c905092915050565b600061124360001984600802611225565b1980831691505092915050565b600061125c8383611232565b9150826002028217905092915050565b61127582610bfb565b67ffffffffffffffff81111561128e5761128d610a10565b5b6112988254610f64565b6112a38282856111df565b600060209050601f8311600181146112d657600084156112c4578287015190505b6112ce8582611250565b865550611336565b601f1984166112e4866110c0565b60005b8281101561130c578489015182556001820191506020850194506020810190506112e7565b868310156113295784890151611325601f891682611232565b8355505b6001600288020188555050505b505050505050565b7f4e487b7100000000000000000000000000000000000000000000000000000000600052601160045260246000fd5b600061137882610c7a565b915061138383610c7a565b925082820261139181610c7a565b915082820484148315176113a8576113a761133e565b5b5092915050565b60006113ba82610c7a565b91506113c583610c7a565b92508282019050808211156113dd576113dc61133e565b5b92915050565b600060808201905081810360008301526113fd8187610c41565b905061140c6020830186610da8565b6114196040830185610c84565b6114266060830184610c84565b95945050505050565b7f43616d706169676e20646f6573206e6f74206578697374000000000000000000600082015250565b6000611465601783610c06565b91506114708261142f565b602082019050919050565b6000602082019050818103600083015261149481611458565b9050919050565b7f43616d706169676e206973206e6f742061637469766500000000000000000000600082015250565b60006114d1601683610c06565b91506114dc8261149b565b602082019050919050565b60006020820190508181036000830152611500816114c4565b9050919050565b7f43616d706169676e2068617320656e6465640000000000000000000000000000600082015250565b600061153d601283610c06565b915061154882611507565b602082019050919050565b6000602082019050818103600083015261156c81611530565b9050919050565b7f436f6e747269627574696f6e206d75737420626520677265617465722074686160008201527f6e20300000000000000000000000000000000000000000000000000000000000602082015250565b60006115cf602383610c06565b91506115da82611573565b604082019050919050565b600060208201905081810360008301526115fe816115c2565b9050919050565b6000606082019050818103600083015261161f8186610c41565b905061162e6020830185610c84565b61163b6040830184610b90565b949350505050565b6000604082019050818103600083015261165d8185610c41565b905061166c6020830184610c84565b939250505056fea2646970667358221220f40783c1874721c3ef6723ef2e2fe9a0e1dc0dbc96675a9b5f4e249cf125132e64736f6c63430008130033",
  "linkReferences": {},
  "deployedLinkReferences": {}
}